{
  "_format": "hh3-artifact-1",
  "contractName": "AcademicCertificate",
  "sourceName": "contracts/AcademicCertificate.sol",
  "abi": [
    {
      "inputs": [
        {
          "internalType": "address",
          "name": "initialOwner",
          "type": "address"
        }
      ],
      "stateMutability": "nonpayable",
      "type": "constructor"
    },
    {
      "inputs": [],
      "name": "AcademicCertificate__CertificateAlreadyRevoked",
      "type": "error"
    },
    {
      "inputs": [],
      "name": "AcademicCertificate__CertificateDoesNotExist",
      "type": "error"
    },
    {
      "inputs": [],
      "name": "AcademicCertificate__InvalidStudentAddress",
      "type": "error"
    },
    {
      "inputs": [
        {
          "internalType": "address",
          "name": "sender",
          "type": "address"
        },
        {
          "internalType": "uint256",
          "name": "tokenId",
          "type": "uint256"
        },
        {
          "internalType": "address",
          "name": "owner",
          "type": "address"
        }
      ],
      "name": "ERC721IncorrectOwner",
      "type": "error"
    },
    {
      "inputs": [
        {
          "internalType": "address",
          "name": "operator",
          "type": "address"
        },
        {
          "internalType": "uint256",
          "name": "tokenId",
          "type": "uint256"
        }
      ],
      "name": "ERC721InsufficientApproval",
      "type": "error"
    },
    {
      "inputs": [
        {
          "internalType": "address",
          "name": "approver",
          "type": "address"
        }
      ],
      "name": "ERC721InvalidApprover",
      "type": "error"
    },
    {
      "inputs": [
        {
          "internalType": "address",
          "name": "operator",
          "type": "address"
        }
      ],
      "name": "ERC721InvalidOperator",
      "type": "error"
    },
    {
      "inputs": [
        {
          "internalType": "address",
          "name": "owner",
          "type": "address"
        }
      ],
      "name": "ERC721InvalidOwner",
      "type": "error"
    },
    {
      "inputs": [
        {
          "internalType": "address",
          "name": "receiver",
          "type": "address"
        }
      ],
      "name": "ERC721InvalidReceiver",
      "type": "error"
    },
    {
      "inputs": [
        {
          "internalType": "address",
          "name": "sender",
          "type": "address"
        }
      ],
      "name": "ERC721InvalidSender",
      "type": "error"
    },
    {
      "inputs": [
        {
          "internalType": "uint256",
          "name": "tokenId",
          "type": "uint256"
        }
      ],
      "name": "ERC721NonexistentToken",
      "type": "error"
    },
    {
      "inputs": [
        {
          "internalType": "address",
          "name": "owner",
          "type": "address"
        }
      ],
      "name": "OwnableInvalidOwner",
      "type": "error"
    },
    {
      "inputs": [
        {
          "internalType": "address",
          "name": "account",
          "type": "address"
        }
      ],
      "name": "OwnableUnauthorizedAccount",
      "type": "error"
    },
    {
      "anonymous": false,
      "inputs": [
        {
          "indexed": true,
          "internalType": "address",
          "name": "owner",
          "type": "address"
        },
        {
          "indexed": true,
          "internalType": "address",
          "name": "approved",
          "type": "address"
        },
        {
          "indexed": true,
          "internalType": "uint256",
          "name": "tokenId",
          "type": "uint256"
        }
      ],
      "name": "Approval",
      "type": "event"
    },
    {
      "anonymous": false,
      "inputs": [
        {
          "indexed": true,
          "internalType": "address",
          "name": "owner",
          "type": "address"
        },
        {
          "indexed": true,
          "internalType": "address",
          "name": "operator",
          "type": "address"
        },
        {
          "indexed": false,
          "internalType": "bool",
          "name": "approved",
          "type": "bool"
        }
      ],
      "name": "ApprovalForAll",
      "type": "event"
    },
    {
      "anonymous": false,
      "inputs": [
        {
          "indexed": false,
          "internalType": "uint256",
          "name": "totalCertificates",
          "type": "uint256"
        }
      ],
      "name": "CertificateCountUpdated",
      "type": "event"
    },
    {
      "anonymous": false,
      "inputs": [
        {
          "indexed": true,
          "internalType": "uint256",
          "name": "certificateId",
          "type": "uint256"
        },
        {
          "indexed": true,
          "internalType": "address",
          "name": "student",
          "type": "address"
        }
      ],
      "name": "CertificateIssued",
      "type": "event"
    },
    {
      "anonymous": false,
      "inputs": [
        {
          "indexed": true,
          "internalType": "uint256",
          "name": "certificateId",
          "type": "uint256"
        }
      ],
      "name": "CertificateRevoked",
      "type": "event"
    },
    {
      "anonymous": false,
      "inputs": [
        {
          "indexed": true,
          "internalType": "uint256",
          "name": "certificateId",
          "type": "uint256"
        },
        {
          "indexed": false,
          "internalType": "bool",
          "name": "valid",
          "type": "bool"
        }
      ],
      "name": "CertificateVerified",
      "type": "event"
    },
    {
      "anonymous": false,
      "inputs": [
        {
          "indexed": true,
          "internalType": "address",
          "name": "previousOwner",
          "type": "address"
        },
        {
          "indexed": true,
          "internalType": "address",
          "name": "newOwner",
          "type": "address"
        }
      ],
      "name": "OwnershipTransferred",
      "type": "event"
    },
    {
      "anonymous": false,
      "inputs": [
        {
          "indexed": true,
          "internalType": "address",
          "name": "from",
          "type": "address"
        },
        {
          "indexed": true,
          "internalType": "address",
          "name": "to",
          "type": "address"
        },
        {
          "indexed": true,
          "internalType": "uint256",
          "name": "tokenId",
          "type": "uint256"
        }
      ],
      "name": "Transfer",
      "type": "event"
    },
    {
      "inputs": [
        {
          "internalType": "address",
          "name": "to",
          "type": "address"
        },
        {
          "internalType": "uint256",
          "name": "tokenId",
          "type": "uint256"
        }
      ],
      "name": "approve",
      "outputs": [],
      "stateMutability": "nonpayable",
      "type": "function"
    },
    {
      "inputs": [
        {
          "internalType": "address",
          "name": "owner",
          "type": "address"
        }
      ],
      "name": "balanceOf",
      "outputs": [
        {
          "internalType": "uint256",
          "name": "",
          "type": "uint256"
        }
      ],
      "stateMutability": "view",
      "type": "function"
    },
    {
      "inputs": [
        {
          "internalType": "uint256",
          "name": "tokenId",
          "type": "uint256"
        }
      ],
      "name": "getApproved",
      "outputs": [
        {
          "internalType": "address",
          "name": "",
          "type": "address"
        }
      ],
      "stateMutability": "view",
      "type": "function"
    },
    {
      "inputs": [
        {
          "internalType": "uint256",
          "name": "certificateId",
          "type": "uint256"
        }
      ],
      "name": "getCertificate",
      "outputs": [
        {
          "components": [
            {
              "internalType": "uint256",
              "name": "id",
              "type": "uint256"
            },
            {
              "internalType": "string",
              "name": "studentName",
              "type": "string"
            },
            {
              "internalType": "string",
              "name": "course",
              "type": "string"
            },
            {
              "internalType": "string",
              "name": "grade",
              "type": "string"
            },
            {
              "internalType": "bytes32",
              "name": "certificateHash",
              "type": "bytes32"
            },
            {
              "internalType": "uint256",
              "name": "issuedAt",
              "type": "uint256"
            },
            {
              "internalType": "bool",
              "name": "revoked",
              "type": "bool"
            }
          ],
          "internalType": "struct AcademicCertificate.Certificate",
          "name": "",
          "type": "tuple"
        }
      ],
      "stateMutability": "view",
      "type": "function"
    },
    {
      "inputs": [],
      "name": "getCertificateCount",
      "outputs": [
        {
          "internalType": "uint256",
          "name": "",
          "type": "uint256"
        }
      ],
      "stateMutability": "view",
      "type": "function"
    },
    {
      "inputs": [
        {
          "internalType": "address",
          "name": "owner",
          "type": "address"
        },
        {
          "internalType": "address",
          "name": "operator",
          "type": "address"
        }
      ],
      "name": "isApprovedForAll",
      "outputs": [
        {
          "internalType": "bool",
          "name": "",
          "type": "bool"
        }
      ],
      "stateMutability": "view",
      "type": "function"
    },
    {
      "inputs": [
        {
          "internalType": "uint256",
          "name": "certificateId",
          "type": "uint256"
        }
      ],
      "name": "isValidCertificate",
      "outputs": [
        {
          "internalType": "bool",
          "name": "",
          "type": "bool"
        }
      ],
      "stateMutability": "view",
      "type": "function"
    },
    {
      "inputs": [
        {
          "internalType": "address",
          "name": "student",
          "type": "address"
        },
        {
          "internalType": "string",
          "name": "studentName",
          "type": "string"
        },
        {
          "internalType": "string",
          "name": "course",
          "type": "string"
        },
        {
          "internalType": "string",
          "name": "grade",
          "type": "string"
        },
        {
          "internalType": "bytes32",
          "name": "certificateHash",
          "type": "bytes32"
        }
      ],
      "name": "issueCertificate",
      "outputs": [],
      "stateMutability": "nonpayable",
      "type": "function"
    },
    {
      "inputs": [],
      "name": "name",
      "outputs": [
        {
          "internalType": "string",
          "name": "",
          "type": "string"
        }
      ],
      "stateMutability": "view",
      "type": "function"
    },
    {
      "inputs": [],
      "name": "owner",
      "outputs": [
        {
          "internalType": "address",
          "name": "",
          "type": "address"
        }
      ],
      "stateMutability": "view",
      "type": "function"
    },
    {
      "inputs": [
        {
          "internalType": "uint256",
          "name": "tokenId",
          "type": "uint256"
        }
      ],
      "name": "ownerOf",
      "outputs": [
        {
          "internalType": "address",
          "name": "",
          "type": "address"
        }
      ],
      "stateMutability": "view",
      "type": "function"
    },
    {
      "inputs": [],
      "name": "renounceOwnership",
      "outputs": [],
      "stateMutability": "nonpayable",
      "type": "function"
    },
    {
      "inputs": [
        {
          "internalType": "uint256",
          "name": "certificateId",
          "type": "uint256"
        }
      ],
      "name": "revokeCertificate",
      "outputs": [],
      "stateMutability": "nonpayable",
      "type": "function"
    },
    {
      "inputs": [
        {
          "internalType": "address",
          "name": "from",
          "type": "address"
        },
        {
          "internalType": "address",
          "name": "to",
          "type": "address"
        },
        {
          "internalType": "uint256",
          "name": "tokenId",
          "type": "uint256"
        }
      ],
      "name": "safeTransferFrom",
      "outputs": [],
      "stateMutability": "nonpayable",
      "type": "function"
    },
    {
      "inputs": [
        {
          "internalType": "address",
          "name": "from",
          "type": "address"
        },
        {
          "internalType": "address",
          "name": "to",
          "type": "address"
        },
        {
          "internalType": "uint256",
          "name": "tokenId",
          "type": "uint256"
        },
        {
          "internalType": "bytes",
          "name": "data",
          "type": "bytes"
        }
      ],
      "name": "safeTransferFrom",
      "outputs": [],
      "stateMutability": "nonpayable",
      "type": "function"
    },
    {
      "inputs": [
        {
          "internalType": "address",
          "name": "operator",
          "type": "address"
        },
        {
          "internalType": "bool",
          "name": "approved",
          "type": "bool"
        }
      ],
      "name": "setApprovalForAll",
      "outputs": [],
      "stateMutability": "nonpayable",
      "type": "function"
    },
    {
      "inputs": [
        {
          "internalType": "bytes4",
          "name": "interfaceId",
          "type": "bytes4"
        }
      ],
      "name": "supportsInterface",
      "outputs": [
        {
          "internalType": "bool",
          "name": "",
          "type": "bool"
        }
      ],
      "stateMutability": "view",
      "type": "function"
    },
    {
      "inputs": [],
      "name": "symbol",
      "outputs": [
        {
          "internalType": "string",
          "name": "",
          "type": "string"
        }
      ],
      "stateMutability": "view",
      "type": "function"
    },
    {
      "inputs": [
        {
          "internalType": "uint256",
          "name": "tokenId",
          "type": "uint256"
        }
      ],
      "name": "tokenURI",
      "outputs": [
        {
          "internalType": "string",
          "name": "",
          "type": "string"
        }
      ],
      "stateMutability": "view",
      "type": "function"
    },
    {
      "inputs": [
        {
          "internalType": "address",
          "name": "from",
          "type": "address"
        },
        {
          "internalType": "address",
          "name": "to",
          "type": "address"
        },
        {
          "internalType": "uint256",
          "name": "tokenId",
          "type": "uint256"
        }
      ],
      "name": "transferFrom",
      "outputs": [],
      "stateMutability": "nonpayable",
      "type": "function"
    },
    {
      "inputs": [
        {
          "internalType": "address",
          "name": "newOwner",
          "type": "address"
        }
      ],
      "name": "transferOwnership",
      "outputs": [],
      "stateMutability": "nonpayable",
      "type": "function"
    }
  ],
  "bytecode": "0x608060405234801561000f575f5ffd5b50604051611b1c380380611b1c83398101604081905261002e9161012e565b806040518060400160405280601481526020017f41636164656d69632043657274696669636174650000000000000000000000008152506040518060400160405280600481526020016310d1549560e21b815250815f908161009091906101f3565b50600161009d82826101f3565b5050506001600160a01b0381166100cd57604051631e4fbdf760e01b81525f600482015260240160405180910390fd5b6100d6816100dd565b50506102ad565b600680546001600160a01b038381166001600160a01b0319831681179093556040519116919082907f8be0079c531659141344cd1fd0a4f28419497f9722a3daafe3b4186f6b6457e0905f90a35050565b5f6020828403121561013e575f5ffd5b81516001600160a01b0381168114610154575f5ffd5b9392505050565b634e487b7160e01b5f52604160045260245ffd5b600181811c9082168061018357607f821691505b6020821081036101a157634e487b7160e01b5f52602260045260245ffd5b50919050565b601f8211156101ee57805f5260205f20601f840160051c810160208510156101cc5750805b601f840160051c820191505b818110156101eb575f81556001016101d8565b50505b505050565b81516001600160401b0381111561020c5761020c61015b565b6102208161021a845461016f565b846101a7565b6020601f821160018114610252575f831561023b5750848201515b5f19600385901b1c1916600184901b1784556101eb565b5f84815260208120601f198516915b828110156102815787850151825560209485019460019092019101610261565b508482101561029e57868401515f19600387901b60f8161c191681555b50505050600190811b01905550565b611862806102ba5f395ff3fe608060405234801561000f575f5ffd5b5060043610610132575f3560e01c806370a08231116100b457806395d89b411161007957806395d89b4114610287578063a22cb4651461028f578063b88d4fde146102a2578063c87b56dd146102b5578063e985e9c5146102c8578063f2fde38b146102db575f5ffd5b806370a0823114610232578063715018a6146102535780637b35ec6f1461025b5780638809f7271461026e5780638da5cb5b14610276575f5ffd5b806323b872dd116100fa57806323b872dd146101c657806325588396146101d957806342842e0e146101ec57806351640fee146101ff5780636352211e1461021f575f5ffd5b806301ffc9a71461013657806306f5497e1461015e57806306fdde0314610173578063081812fc14610188578063095ea7b3146101b3575b5f5ffd5b610149610144366004611289565b6102ee565b60405190151581526020015b60405180910390f35b61017161016c3660046112a4565b61033f565b005b61017b6103f2565b60405161015591906112e9565b61019b6101963660046112a4565b610481565b6040516001600160a01b039091168152602001610155565b6101716101c1366004611316565b6104a8565b6101716101d436600461133e565b6104b7565b6101496101e73660046112a4565b610545565b6101716101fa36600461133e565b610592565b61021261020d3660046112a4565b6105b1565b6040516101559190611378565b61019b61022d3660046112a4565b610822565b610245610240366004611406565b61082c565b604051908152602001610155565b610171610871565b6101716102693660046114c8565b610884565b600754610245565b6006546001600160a01b031661019b565b61017b6109ff565b61017161029d36600461156e565b610a0e565b6101716102b03660046115a7565b610a19565b61017b6102c33660046112a4565b610a31565b6101496102d636600461161e565b610aa2565b6101716102e9366004611406565b610acf565b5f6001600160e01b031982166380ac58cd60e01b148061031e57506001600160e01b03198216635b5e139f60e01b145b8061033957506301ffc9a760e01b6001600160e01b03198316145b92915050565b610347610b0c565b5f818152600260205260409020546001600160a01b031661037b5760405163c986357160e01b815260040160405180910390fd5b5f8181526008602052604090206006015460ff16156103ad5760405163be7c3b6360e01b815260040160405180910390fd5b5f81815260086020526040808220600601805460ff191660011790555182917fefa6c5f47ac2523bb4db18032377bf7fdce0fa9d86eddcae1ca9bba38be615d791a250565b60605f80546104009061164f565b80601f016020809104026020016040519081016040528092919081815260200182805461042c9061164f565b80156104775780601f1061044e57610100808354040283529160200191610477565b820191905f5260205f20905b81548152906001019060200180831161045a57829003601f168201915b5050505050905090565b5f61048b82610b39565b505f828152600460205260409020546001600160a01b0316610339565b6104b3828233610b71565b5050565b6001600160a01b0382166104e557604051633250574960e11b81525f60048201526024015b60405180910390fd5b5f6104f1838333610b7e565b9050836001600160a01b0316816001600160a01b03161461053f576040516364283d7b60e01b81526001600160a01b03808616600483015260248201849052821660448201526064016104dc565b50505050565b5f818152600260205260408120546001600160a01b03166105795760405163c986357160e01b815260040160405180910390fd5b505f9081526008602052604090206006015460ff161590565b6105ac83838360405180602001604052805f815250610a19565b505050565b6105ef6040518060e001604052805f81526020016060815260200160608152602001606081526020015f81526020015f81526020015f151581525090565b5f828152600260205260409020546001600160a01b03166106235760405163c986357160e01b815260040160405180910390fd5b60085f8381526020019081526020015f206040518060e00160405290815f82015481526020016001820180546106589061164f565b80601f01602080910402602001604051908101604052809291908181526020018280546106849061164f565b80156106cf5780601f106106a6576101008083540402835291602001916106cf565b820191905f5260205f20905b8154815290600101906020018083116106b257829003601f168201915b505050505081526020016002820180546106e89061164f565b80601f01602080910402602001604051908101604052809291908181526020018280546107149061164f565b801561075f5780601f106107365761010080835404028352916020019161075f565b820191905f5260205f20905b81548152906001019060200180831161074257829003601f168201915b505050505081526020016003820180546107789061164f565b80601f01602080910402602001604051908101604052809291908181526020018280546107a49061164f565b80156107ef5780601f106107c6576101008083540402835291602001916107ef565b820191905f5260205f20905b8154815290600101906020018083116107d257829003601f168201915b5050509183525050600482015460208201526005820154604082015260069091015460ff16151560609091015292915050565b5f61033982610b39565b5f6001600160a01b038216610856576040516322718ad960e21b81525f60048201526024016104dc565b506001600160a01b03165f9081526003602052604090205490565b610879610b0c565b6108825f610c70565b565b61088c610b0c565b6001600160a01b0385166108b35760405163845a3def60e01b815260040160405180910390fd5b60078054905f6108c283611687565b90915550506007546108d48682610cc1565b6040805160e081018252828152602080820188815282840188905260608301879052608083018690524260a08401525f60c084018190528581526008909252929020815181559151909190600182019061092e90826116ef565b506040820151600282019061094390826116ef565b506060820151600382019061095890826116ef565b506080820151600482015560a0820151600582015560c0909101516006909101805460ff19169115159190911790556040516001600160a01b0387169082907fe49b307e598015623a2892255804cc484dc5e94047758669301ad2f11a739ffb905f90a37f81d661642f24bed2216da08780c0c87c6827ee7a9389ed981ddcd3995e9b4c786007546040516109ef91815260200190565b60405180910390a1505050505050565b6060600180546104009061164f565b6104b3338383610cda565b610a248484846104b7565b61053f3385858585610da1565b6060610a3c82610b39565b505f610a5260408051602081019091525f815290565b90505f815111610a705760405180602001604052805f815250610a9b565b80610a7a84610ec9565b604051602001610a8b9291906117c1565b6040516020818303038152906040525b9392505050565b6001600160a01b039182165f90815260056020908152604080832093909416825291909152205460ff1690565b610ad7610b0c565b6001600160a01b038116610b0057604051631e4fbdf760e01b81525f60048201526024016104dc565b610b0981610c70565b50565b6006546001600160a01b031633146108825760405163118cdaa760e01b81523360048201526024016104dc565b5f818152600260205260408120546001600160a01b03168061033957604051637e27328960e01b8152600481018490526024016104dc565b6105ac8383836001610f59565b5f828152600260205260408120546001600160a01b0390811690831615610baa57610baa81848661105d565b6001600160a01b03811615610be457610bc55f855f5f610f59565b6001600160a01b0381165f90815260036020526040902080545f190190555b6001600160a01b03851615610c12576001600160a01b0385165f908152600360205260409020805460010190555b5f8481526002602052604080822080546001600160a01b0319166001600160a01b0389811691821790925591518793918516917fddf252ad1be2c89b69c2b068fc378daa952ba7f163c4a11628f55a4df523b3ef91a4949350505050565b600680546001600160a01b038381166001600160a01b0319831681179093556040519116919082907f8be0079c531659141344cd1fd0a4f28419497f9722a3daafe3b4186f6b6457e0905f90a35050565b6104b3828260405180602001604052805f8152506110c1565b6001600160a01b038316610d035760405163a9fbf51f60e01b81525f60048201526024016104dc565b6001600160a01b038216610d3557604051630b61174360e31b81526001600160a01b03831660048201526024016104dc565b6001600160a01b038381165f81815260056020908152604080832094871680845294825291829020805460ff191686151590811790915591519182527f17307eab39ab6107e8899845ad3d59bd9653f200f220920489ca2b5937696c31910160405180910390a3505050565b6001600160a01b0383163b15610ec257604051630a85bd0160e11b81526001600160a01b0384169063150b7a0290610de39088908890879087906004016117d5565b6020604051808303815f875af1925050508015610e1d575060408051601f3d908101601f19168201909252610e1a91810190611811565b60015b610e84573d808015610e4a576040519150601f19603f3d011682016040523d82523d5f602084013e610e4f565b606091505b5080515f03610e7c57604051633250574960e11b81526001600160a01b03851660048201526024016104dc565b805160208201fd5b6001600160e01b03198116630a85bd0160e11b14610ec057604051633250574960e11b81526001600160a01b03851660048201526024016104dc565b505b5050505050565b60605f610ed5836110d8565b60010190505f8167ffffffffffffffff811115610ef457610ef461141f565b6040519080825280601f01601f191660200182016040528015610f1e576020820181803683370190505b5090508181016020015b5f19016f181899199a1a9b1b9c1cb0b131b232b360811b600a86061a8153600a8504945084610f2857509392505050565b8080610f6d57506001600160a01b03821615155b1561102e575f610f7c84610b39565b90506001600160a01b03831615801590610fa85750826001600160a01b0316816001600160a01b031614155b8015610fbb5750610fb98184610aa2565b155b15610fe45760405163a9fbf51f60e01b81526001600160a01b03841660048201526024016104dc565b811561102c5783856001600160a01b0316826001600160a01b03167f8c5be1e5ebec7d5bd14f71427d1e84f3dd0314c0f7b2291e5b200ac8c7c3b92560405160405180910390a45b505b50505f90815260046020526040902080546001600160a01b0319166001600160a01b0392909216919091179055565b6110688383836111af565b6105ac576001600160a01b03831661109657604051637e27328960e01b8152600481018290526024016104dc565b60405163177e802f60e01b81526001600160a01b0383166004820152602481018290526044016104dc565b6110cb8383611213565b6105ac335f858585610da1565b5f8072184f03e93ff9f4daa797ed6e38ed64bf6a1f0160401b83106111165772184f03e93ff9f4daa797ed6e38ed64bf6a1f0160401b830492506040015b6d04ee2d6d415b85acef81000000008310611142576d04ee2d6d415b85acef8100000000830492506020015b662386f26fc10000831061116057662386f26fc10000830492506010015b6305f5e1008310611178576305f5e100830492506008015b612710831061118c57612710830492506004015b6064831061119e576064830492506002015b600a83106103395760010192915050565b5f6001600160a01b0383161580159061120b5750826001600160a01b0316846001600160a01b031614806111e857506111e88484610aa2565b8061120b57505f828152600460205260409020546001600160a01b038481169116145b949350505050565b6001600160a01b03821661123c57604051633250574960e11b81525f60048201526024016104dc565b5f61124883835f610b7e565b90506001600160a01b038116156105ac576040516339e3563760e11b81525f60048201526024016104dc565b6001600160e01b031981168114610b09575f5ffd5b5f60208284031215611299575f5ffd5b8135610a9b81611274565b5f602082840312156112b4575f5ffd5b5035919050565b5f81518084528060208401602086015e5f602082860101526020601f19601f83011685010191505092915050565b602081525f610a9b60208301846112bb565b80356001600160a01b0381168114611311575f5ffd5b919050565b5f5f60408385031215611327575f5ffd5b611330836112fb565b946020939093013593505050565b5f5f5f60608486031215611350575f5ffd5b611359846112fb565b9250611367602085016112fb565b929592945050506040919091013590565b60208152815160208201525f602083015160e0604084015261139e6101008401826112bb565b90506040840151601f198483030160608501526113bb82826112bb565b9150506060840151601f198483030160808501526113d982826112bb565b915050608084015160a084015260a084015160c084015260c0840151151560e08401528091505092915050565b5f60208284031215611416575f5ffd5b610a9b826112fb565b634e487b7160e01b5f52604160045260245ffd5b5f5f67ffffffffffffffff84111561144d5761144d61141f565b50604051601f19601f85018116603f0116810181811067ffffffffffffffff8211171561147c5761147c61141f565b604052838152905080828401851015611493575f5ffd5b838360208301375f60208583010152509392505050565b5f82601f8301126114b9575f5ffd5b610a9b83833560208501611433565b5f5f5f5f5f60a086880312156114dc575f5ffd5b6114e5866112fb565b9450602086013567ffffffffffffffff811115611500575f5ffd5b61150c888289016114aa565b945050604086013567ffffffffffffffff811115611528575f5ffd5b611534888289016114aa565b935050606086013567ffffffffffffffff811115611550575f5ffd5b61155c888289016114aa565b95989497509295608001359392505050565b5f5f6040838503121561157f575f5ffd5b611588836112fb565b91506020830135801515811461159c575f5ffd5b809150509250929050565b5f5f5f5f608085870312156115ba575f5ffd5b6115c3856112fb565b93506115d1602086016112fb565b925060408501359150606085013567ffffffffffffffff8111156115f3575f5ffd5b8501601f81018713611603575f5ffd5b61161287823560208401611433565b91505092959194509250565b5f5f6040838503121561162f575f5ffd5b611638836112fb565b9150611646602084016112fb565b90509250929050565b600181811c9082168061166357607f821691505b60208210810361168157634e487b7160e01b5f52602260045260245ffd5b50919050565b5f600182016116a457634e487b7160e01b5f52601160045260245ffd5b5060010190565b601f8211156105ac57805f5260205f20601f840160051c810160208510156116d05750805b601f840160051c820191505b81811015610ec2575f81556001016116dc565b815167ffffffffffffffff8111156117095761170961141f565b61171d81611717845461164f565b846116ab565b6020601f82116001811461174f575f83156117385750848201515b5f19600385901b1c1916600184901b178455610ec2565b5f84815260208120601f198516915b8281101561177e578785015182556020948501946001909201910161175e565b508482101561179b57868401515f19600387901b60f8161c191681555b50505050600190811b01905550565b5f81518060208401855e5f93019283525090919050565b5f61120b6117cf83866117aa565b846117aa565b6001600160a01b03858116825284166020820152604081018390526080606082018190525f90611807908301846112bb565b9695505050505050565b5f60208284031215611821575f5ffd5b8151610a9b8161127456fea264697066735822122098904eb867ca6b9c561742d5290e09ceb78f91105ae4ece076be69b3325feddc64736f6c634300081c0033",
  "linkReferences": {},
  "deployedLinkReferences": {},
  "immutableReferences": {},
  "inputSourceName": "project/contracts/AcademicCertificate.sol",
  "buildInfoId": "solc-0_8_28-62c482021b491ffa1dcad3a90fcdb7ab36fc38bd"
}